:10000000F4C0000004C1000002C1000000C10000F3
:10001000FEC00000FCC00000FAC00000F8C00000F4
:10002000F6C00000F4C00000F2C00000F0C0000004
:10003000EEC00000ECC00000EAC00000E8C0000014
:10004000E6C00000E4C00000E2C00000E0C0000024
:10005000DEC00000DCC00000DAC0000044C20000C6
:10006000D6C00000D4C00000D2C00000D0C0000044
:10007000CEC00000CCC00000CAC00000C8C0000054
:10008000C6C00000C4C00000C2C00000C0C0000064
:10009000BEC00000BCC00000BAC00000B8C0000074
:1000A000B6C00000B4C00000B2C00000B0C0000084
:1000B000AEC00000ACC00000AAC00000A8C0000094
:1000C000A6C00000A4C00000A2C00000A0C00000A4
:1000D0009EC000009CC000009AC0000098C00000B4
:1000E00096C0000000000A0B02090C0D0E08070361
:1000F00004010000000000000000000000000000FB
:1001000000000000000000000000000000000000EF
:1001100012111000000000000000000000000000AC
:100120000000000000000000000000002200250088
:1001300028002B002E0031003400020100000501D0
:1001400008010B0100002100240027002A002D00D7
:100150003000330001010000040107010A01050518
:100160000505070508080808020202020A0A08082D
:10017000040404040101010101010101030303035B
:1001800003030303040707070C0C0C0C0C0C0C0CEA
:100190000202020206060606060606060B0B0B0BFB
:1001A0000B0B0B0B01021020200808102040102020
:1001B000408002010201080402010102040810202B
:1001C0004080804020100804020180040201804029
:1001D0002010080402010804020101020408102092
:1001E0004080010204081020408011241FBECFEF80
:1001F000D1E2DEBFCDBF00E00CBF22E0A0E0B2E064
:1002000001C01D92A930B207E1F7B7D141C2F8CEC3
:1002100090E0FC01EC55FE4F2491825A9E4FFC0168
:100220008491882399F090E0880F991FFC01EC5B82
:10023000FE4FA591B491FC01E65DFE4F859194912E
:100240008FB7F894EC91E22BEC938FBF0895282F91
:1002500030E0F901EC51FF4F9491F901EC55FE4F5C
:100260004491225A3E4FF9012491222309F434C0CB
:10027000992309F191509231F0F4E92FF0E08827A9
:10028000EC5BFE4F8F4FFCC17501790156016D018A
:1002900071015B017C01820186018C019001940156
:1002A0009A019E015B01A201A801AC01809180002E
:1002B0008F7780938000E22FF0E0EE0FFF1FE65D66
:1002C000FE4FA591B4918FB7F894EC91611148C09D
:1002D00040954E234C938FBF0895809180008F7D71
:1002E000E8CF80918000877FE4CF84B58F7784BD8D
:1002F000E2CF84B58F7DFBCF8091B0008F77809364
:10030000B000D9CF8091B0008F7DF9CF809190005F
:100310008F7780939000CFCF809190008F7DF9CF21
:1003200080919000877FF5CF8091A0008F77809398
:10033000A000C1CF8091A0008F7DF9CF8091A00057
:10034000877FF5CF809120018F7780932001B3CFF5
:10035000809120018F7DF9CF80912001877FF5CF9B
:100360004E2BB8CF982FE82FF0E0EC51FF4FE491DF
:10037000E150E23108F0AFC0F0E08827EF53FE4FC4
:100380008F4F7EC1D401D901DE01E801F2016B0279
:10039000FC0104020C02160220022A023902430266
:1003A0006B024D025702610284B5806884BD67BD4F
:1003B000089584B5806284BD68BD089580918000F1
:1003C000806880938000709389006093880008950E
:1003D0008091800080628093800070938B00609396
:1003E0008A000895809180008860809380007093D7
:1003F0008D0060938C0008958091B0008068809398
:10040000B0006093B30008958091B0008062809343
:10041000B0006093B400089580919000806880934C
:1004200090007093990060939800089580919000D7
:1004300080628093900070939B0060939A0008956F
:100440008091900088608093900070939D006093ED
:100450009C0008958091A00080688093A000809106
:10046000A0008F7B8093A0007093A9006093A800E8
:1004700008958091A00080628093A0007093AB00EB
:100480006093AA0008958091A00088608093A000E6
:100490007093AD006093AC00089580912001806856
:1004A0008093200170932901609328010895809121
:1004B000200180628093200170932B0160932A01B8
:1004C00008958091200188608093200170932D0110
:1004D00060932C010895603871051CF460E0892F49
:1004E000B6CE61E0FCCF1F920F920FB60F9211248F
:1004F0002F933F938F939F93AF93BF938091050268
:1005000090910602A0910702B09108023091040276
:1005100023E0230F2D3758F50196A11DB11D20931F
:1005200004028093050290930602A0930702B09301
:1005300008028091000290910102A0910202B09104
:1005400003020196A11DB11D809300029093010248
:10055000A0930202B0930302BF91AF919F918F913C
:100560003F912F910F900FBE0F901F90189526E886
:10057000230F0296A11DB11DD2CF789484B582605D
:1005800084BD84B5816084BD85B5826085BD85B537
:10059000816085BD80916E00816080936E001092B5
:1005A0008100809181008260809381008091810030
:1005B00081608093810080918000816080938000C1
:1005C0008091B10084608093B1008091B00081601F
:1005D0008093B0008091910082608093910080911F
:1005E0009100816080939100809190008160809360
:1005F00090008091A10082608093A1008091A10071
:1006000081608093A1008091A00081608093A00010
:10061000809121018260809321018091210181607C
:10062000809321018091200181608093200180913D
:100630007A00846080937A0080917A00826080934F
:100640007A0080917A00816080937A0080917A00AC
:10065000806880937A001092C10086E0D9DD64E65C
:1006600070E086E07FDE85E0D3DD68EC70E085E059
:1006700079DEC0E0D0E02097F1F30E940000FBCFCC
:10068000EE0FFF1F881F8BBF0790F691E02D199486
:04069000F894FFCF0C
:00000001FF
