:10000000F4C0000011C100000FC100000DC10000CC
:100010000BC1000009C1000007C1000005C10000BC
:1000200003C1000001C10000FFC00000FDC00000CE
:10003000FBC00000F9C00000F7C00000F5C00000E0
:10004000F3C00000F1C00000EFC00000EDC00000F0
:10005000EBC00000E9C00000E7C000009EC2000045
:10006000E3C00000E1C00000DFC00000DDC0000010
:10007000DBC00000D9C00000D7C00000D5C0000020
:10008000D3C00000D1C00000CFC00000CDC0000030
:10009000CBC00000C9C00000C7C00000C5C0000040
:1000A000C3C00000C1C00000BFC00000BDC0000050
:1000B000BBC00000B9C00000B7C00000B5C0000060
:1000C000B3C00000B1C00000AFC00000ADC0000070
:1000D000ABC00000A9C00000A7C00000A5C0000080
:1000E000A3C0000000000A0B02090C0D0E08070354
:1000F00004010000000000000000000000000000FB
:1001000000000000000000000000000000000000EF
:1001100012111000000000000000000000000000AC
:100120000000000000000000000001021020200874
:100130000810204010204080020102010804020142
:1001400001020408102040808040201008040201B1
:10015000800402018040201008040201080402010A
:100160000102040810204080010204081020408091
:1001700005050505070508080808020202020A0A23
:100180000808040404040101010101010101030341
:10019000030303030303040707070C0C0C0C0C0CEC
:1001A0000C0C0202020206060606060606060B0BE9
:1001B0000B0B0B0B0B0B00002200250028002B0063
:1001C0002E003100340002010000050108010B017E
:1001D00000002100240027002A002D0030003300F9
:1001E00001010000040107010A0111241FBECFEF25
:1001F000D1E2DEBFCDBF00E00CBF12E0A0E0B2E074
:10020000E6E0F7E000E00BBF02C007900D92A030DF
:10021000B107D9F722E0A0E0B2E001C01D92A930F9
:10022000B207E1F7AFD16DC2EBCE64E670E086E0D5
:1002300005D068EC70E085E001C008951F93CF936E
:10024000DF93182FEB0161E033D1209731F460E0A8
:10025000812FDF91CF911F9167C1CF3FD10511F45D
:1002600061E0F6CFE12FF0E0EC51FF4FE491E15077
:10027000E23108F0B2C0F0E08827EF5BFE4F8F4F0D
:1002800038C253015B0160016A017401ED017E0116
:1002900086018E019801A201AC01BB01C501ED01EF
:1002A000CF01D901E30184B5806884BDC7BDDF916A
:1002B000CF911F91089584B5806284BDC8BDF7CFEA
:1002C00080918000806880938000D0938900C093E3
:1002D0008800EDCF80918000806280938000D09371
:1002E0008B00C0938A00E3CF809180008860809368
:1002F0008000D0938D00C0938C00D9CF8091B00046
:1003000080688093B000C093B300D1CF8091B000DB
:1003100080628093B000C093B400C9CF80919000F8
:10032000806880939000D0939900C0939800BFCFCD
:1003300080919000806280939000D0939B00C09346
:100340009A00B5CF80919000886080939000D09300
:100350009D00C0939C00ABCF8091A00080688093EB
:10036000A0008091A0008F7B8093A000D093A90073
:10037000C093A8009CCF8091A00080628093A000D1
:10038000D093AB00C093AA0092CF8091A000886068
:100390008093A000D093AD00C093AC0088CF809133
:1003A0002001806880932001D0932901C093280107
:1003B0007ECF80912001806280932001D0932B0119
:1003C000C0932A0174CF809120018860809320011E
:1003D000D0932D01C0932C016ACFC038D1050CF009
:1003E0003FCF35CF8150823108F059C0E82FF0E07F
:1003F0008827E350FE4F8F4F7CC11D0221020F0260
:10040000150219024F0224022A022E023402380277
:100410003C02420246024F024A02500254028091BC
:1004200080008F77809380000895809180008F7D79
:10043000F9CF80918000877FF5CF84B58F7784BD19
:10044000089584B58F7DFBCF8091B0008F77809326
:10045000B00008958091B0008F7DF9CF8091900019
:100460008F77809390000895809190008F7DF9CFD1
:1004700080919000877FF5CF8091A0008F77809347
:10048000A00008958091A0008F7DF9CF8091A000F9
:10049000877FF5CF809120018F7780932001089589
:1004A000809120018F7DF9CF80912001877FF5CF4A
:1004B000CF93DF9390E0FC01E65DFE4F24918059DD
:1004C0009E4FFC0184918823C9F090E0880F991F0A
:1004D000FC01E053FE4FA591B491FC01EA54FE4F9C
:1004E000C591D49161110DC09FB7F8948C9120955E
:1004F00082238C938881282328839FBFDF91CF910B
:100500000895623051F49FB7F8943C91822F809502
:1005100083238C93E8812E2BEFCF8FB7F894EC9147
:100520002E2B2C938FBFEACF1F93CF93DF93282FCF
:1005300030E0F901EC51FF4F8491F901E65DFE4F87
:10054000D491F901E059FE4FC491CC23A1F0162FAC
:10055000811148DFEC2FF0E0EE0FFF1FEA54FE4F51
:10056000A591B4918FB7F894EC91111108C0D09572
:10057000DE23DC938FBFDF91CF911F910895DE2B97
:10058000F8CF089554D0FDDF50DEC0E0D0E055DE56
:100590002097E9F30E940000FACF1F920F920FB646
:1005A0000F9211242F933F938F939F93AF93BF93F9
:1005B0008091010290910202A0910302B091040285
:1005C0003091000223E0230F2D3758F50196A11D2D
:1005D000B11D209300028093010290930202A09328
:1005E0000302B09304028091050290910602A0914B
:1005F0000702B09108020196A11DB11D809305026A
:1006000090930602A0930702B0930802BF91AF91A6
:100610009F918F913F912F910F900FBE0F901F9040
:10062000189526E8230F0296A11DB11DD2CF78940C
:1006300084B5826084BD84B5816084BD85B58260E7
:1006400085BD85B5816085BDEEE6F0E08081816085
:100650008083E1E8F0E01082808182608083808185
:1006600081608083E0E8F0E0808181608083E1EB5D
:10067000F0E0808184608083E0EBF0E08081816045
:100680008083E1E9F0E08081826080838081816005
:100690008083E0E9F0E0808181608083E1EAF0E03E
:1006A000808182608083808181608083E0EAF0E0E5
:1006B000808181608083E1E2F1E0808182608083DB
:1006C000808181608083E0E2F1E0808181608083CD
:1006D000EAE7F0E0808184608083808182608083AB
:1006E0008081816080838081806880831092C100D6
:1006F0000895EE0FFF1F881F8BBF0790F691E02D26
:060700001994F894FFCFEC
:00000001FF
